{
    "contractName": "LiminalMarket",
    "abi": [
        {
            "inputs": [
                {
                    "internalType": "contract aUSD",
                    "name": "_aUsdContract",
                    "type": "address"
                },
                {
                    "internalType": "contract KYC",
                    "name": "_kycContract",
                    "type": "address"
                }
            ],
            "stateMutability": "nonpayable",
            "type": "constructor"
        },
        {
            "anonymous": false,
            "inputs": [
                {
                    "indexed": false,
                    "internalType": "string",
                    "name": "symbol",
                    "type": "string"
                },
                {
                    "indexed": false,
                    "internalType": "address",
                    "name": "recipient",
                    "type": "address"
                },
                {
                    "indexed": false,
                    "internalType": "uint256",
                    "name": "amount",
                    "type": "uint256"
                },
                {
                    "indexed": false,
                    "internalType": "uint256",
                    "name": "filledAvgPrice",
                    "type": "uint256"
                }
            ],
            "name": "BoughtSecurityToken",
            "type": "event"
        },
        {
            "anonymous": false,
            "inputs": [
                {
                    "indexed": false,
                    "internalType": "address",
                    "name": "userAddress",
                    "type": "address"
                },
                {
                    "indexed": false,
                    "internalType": "uint256",
                    "name": "amount",
                    "type": "uint256"
                },
                {
                    "indexed": false,
                    "internalType": "string",
                    "name": "accountId",
                    "type": "string"
                },
                {
                    "indexed": false,
                    "internalType": "string",
                    "name": "symbol",
                    "type": "string"
                },
                {
                    "indexed": false,
                    "internalType": "address",
                    "name": "tokenAddress",
                    "type": "address"
                }
            ],
            "name": "BuyWithAUsd",
            "type": "event"
        },
        {
            "anonymous": false,
            "inputs": [
                {
                    "indexed": false,
                    "internalType": "address",
                    "name": "addr",
                    "type": "address"
                },
                {
                    "indexed": false,
                    "internalType": "uint256",
                    "name": "salt",
                    "type": "uint256"
                }
            ],
            "name": "Deployed",
            "type": "event"
        },
        {
            "anonymous": false,
            "inputs": [
                {
                    "indexed": true,
                    "internalType": "address",
                    "name": "previousOwner",
                    "type": "address"
                },
                {
                    "indexed": true,
                    "internalType": "address",
                    "name": "newOwner",
                    "type": "address"
                }
            ],
            "name": "OwnershipTransferred",
            "type": "event"
        },
        {
            "anonymous": false,
            "inputs": [
                {
                    "indexed": true,
                    "internalType": "bytes32",
                    "name": "role",
                    "type": "bytes32"
                },
                {
                    "indexed": true,
                    "internalType": "bytes32",
                    "name": "previousAdminRole",
                    "type": "bytes32"
                },
                {
                    "indexed": true,
                    "internalType": "bytes32",
                    "name": "newAdminRole",
                    "type": "bytes32"
                }
            ],
            "name": "RoleAdminChanged",
            "type": "event"
        },
        {
            "anonymous": false,
            "inputs": [
                {
                    "indexed": true,
                    "internalType": "bytes32",
                    "name": "role",
                    "type": "bytes32"
                },
                {
                    "indexed": true,
                    "internalType": "address",
                    "name": "account",
                    "type": "address"
                },
                {
                    "indexed": true,
                    "internalType": "address",
                    "name": "sender",
                    "type": "address"
                }
            ],
            "name": "RoleGranted",
            "type": "event"
        },
        {
            "anonymous": false,
            "inputs": [
                {
                    "indexed": true,
                    "internalType": "bytes32",
                    "name": "role",
                    "type": "bytes32"
                },
                {
                    "indexed": true,
                    "internalType": "address",
                    "name": "account",
                    "type": "address"
                },
                {
                    "indexed": true,
                    "internalType": "address",
                    "name": "sender",
                    "type": "address"
                }
            ],
            "name": "RoleRevoked",
            "type": "event"
        },
        {
            "anonymous": false,
            "inputs": [
                {
                    "indexed": false,
                    "internalType": "string",
                    "name": "accountId",
                    "type": "string"
                },
                {
                    "indexed": false,
                    "internalType": "address",
                    "name": "recipient",
                    "type": "address"
                },
                {
                    "indexed": false,
                    "internalType": "address",
                    "name": "sender",
                    "type": "address"
                },
                {
                    "indexed": false,
                    "internalType": "string",
                    "name": "symbol",
                    "type": "string"
                },
                {
                    "indexed": false,
                    "internalType": "uint256",
                    "name": "amount",
                    "type": "uint256"
                }
            ],
            "name": "SellSecurityToken",
            "type": "event"
        },
        {
            "anonymous": false,
            "inputs": [
                {
                    "indexed": false,
                    "internalType": "string",
                    "name": "symbol",
                    "type": "string"
                },
                {
                    "indexed": false,
                    "internalType": "address",
                    "name": "recipient",
                    "type": "address"
                },
                {
                    "indexed": false,
                    "internalType": "uint256",
                    "name": "amount",
                    "type": "uint256"
                },
                {
                    "indexed": false,
                    "internalType": "uint256",
                    "name": "filledAvgPrice",
                    "type": "uint256"
                }
            ],
            "name": "SoldSecurityToken",
            "type": "event"
        },
        {
            "anonymous": false,
            "inputs": [
                {
                    "indexed": false,
                    "internalType": "address",
                    "name": "tokenAddress",
                    "type": "address"
                },
                {
                    "indexed": false,
                    "internalType": "string",
                    "name": "symbol",
                    "type": "string"
                }
            ],
            "name": "TokenCreated",
            "type": "event"
        },
        {
            "inputs": [],
            "name": "DEFAULT_ADMIN_ROLE",
            "outputs": [
                {
                    "internalType": "bytes32",
                    "name": "",
                    "type": "bytes32"
                }
            ],
            "stateMutability": "view",
            "type": "function"
        },
        {
            "inputs": [],
            "name": "MINT_AND_BURN_ROLE",
            "outputs": [
                {
                    "internalType": "bytes32",
                    "name": "",
                    "type": "bytes32"
                }
            ],
            "stateMutability": "view",
            "type": "function"
        },
        {
            "inputs": [],
            "name": "aUsdContract",
            "outputs": [
                {
                    "internalType": "contract aUSD",
                    "name": "",
                    "type": "address"
                }
            ],
            "stateMutability": "view",
            "type": "function"
        },
        {
            "inputs": [
                {
                    "internalType": "string",
                    "name": "symbol",
                    "type": "string"
                },
                {
                    "internalType": "address",
                    "name": "recipient",
                    "type": "address"
                },
                {
                    "internalType": "uint256",
                    "name": "amount",
                    "type": "uint256"
                },
                {
                    "internalType": "uint256",
                    "name": "filledAvgPrice",
                    "type": "uint256"
                },
                {
                    "internalType": "uint256",
                    "name": "aUsdBalance",
                    "type": "uint256"
                }
            ],
            "name": "burnSecurityTokenAndSetAUsdBalance",
            "outputs": [],
            "stateMutability": "nonpayable",
            "type": "function"
        },
        {
            "inputs": [
                {
                    "internalType": "address",
                    "name": "userAddress",
                    "type": "address"
                },
                {
                    "internalType": "address",
                    "name": "tokenAddress",
                    "type": "address"
                },
                {
                    "internalType": "uint256",
                    "name": "amount",
                    "type": "uint256"
                }
            ],
            "name": "buyWithAUsd",
            "outputs": [
                {
                    "internalType": "bool",
                    "name": "",
                    "type": "bool"
                }
            ],
            "stateMutability": "nonpayable",
            "type": "function"
        },
        {
            "inputs": [
                {
                    "internalType": "string",
                    "name": "symbol",
                    "type": "string"
                }
            ],
            "name": "createToken",
            "outputs": [
                {
                    "internalType": "address",
                    "name": "",
                    "type": "address"
                }
            ],
            "stateMutability": "payable",
            "type": "function"
        },
        {
            "inputs": [
                {
                    "internalType": "bytes32",
                    "name": "role",
                    "type": "bytes32"
                }
            ],
            "name": "getRoleAdmin",
            "outputs": [
                {
                    "internalType": "bytes32",
                    "name": "",
                    "type": "bytes32"
                }
            ],
            "stateMutability": "view",
            "type": "function"
        },
        {
            "inputs": [
                {
                    "internalType": "string",
                    "name": "symbol",
                    "type": "string"
                }
            ],
            "name": "getSecurityToken",
            "outputs": [
                {
                    "internalType": "address",
                    "name": "",
                    "type": "address"
                }
            ],
            "stateMutability": "view",
            "type": "function"
        },
        {
            "inputs": [
                {
                    "internalType": "address",
                    "name": "recipient",
                    "type": "address"
                }
            ],
            "name": "grantMintAndBurnRole",
            "outputs": [],
            "stateMutability": "nonpayable",
            "type": "function"
        },
        {
            "inputs": [
                {
                    "internalType": "bytes32",
                    "name": "role",
                    "type": "bytes32"
                },
                {
                    "internalType": "address",
                    "name": "account",
                    "type": "address"
                }
            ],
            "name": "grantRole",
            "outputs": [],
            "stateMutability": "nonpayable",
            "type": "function"
        },
        {
            "inputs": [
                {
                    "internalType": "bytes32",
                    "name": "role",
                    "type": "bytes32"
                },
                {
                    "internalType": "address",
                    "name": "account",
                    "type": "address"
                }
            ],
            "name": "hasRole",
            "outputs": [
                {
                    "internalType": "bool",
                    "name": "",
                    "type": "bool"
                }
            ],
            "stateMutability": "view",
            "type": "function"
        },
        {
            "inputs": [],
            "name": "kycContract",
            "outputs": [
                {
                    "internalType": "contract KYC",
                    "name": "",
                    "type": "address"
                }
            ],
            "stateMutability": "view",
            "type": "function"
        },
        {
            "inputs": [
                {
                    "internalType": "string",
                    "name": "symbol",
                    "type": "string"
                },
                {
                    "internalType": "address",
                    "name": "recipient",
                    "type": "address"
                },
                {
                    "internalType": "uint256",
                    "name": "amount",
                    "type": "uint256"
                },
                {
                    "internalType": "uint256",
                    "name": "filledAvgPrice",
                    "type": "uint256"
                },
                {
                    "internalType": "uint256",
                    "name": "aUsdBalance",
                    "type": "uint256"
                }
            ],
            "name": "mintSecurityTokenAndSetAUsdBalance",
            "outputs": [],
            "stateMutability": "nonpayable",
            "type": "function"
        },
        {
            "inputs": [],
            "name": "owner",
            "outputs": [
                {
                    "internalType": "address",
                    "name": "",
                    "type": "address"
                }
            ],
            "stateMutability": "view",
            "type": "function"
        },
        {
            "inputs": [],
            "name": "renounceOwnership",
            "outputs": [],
            "stateMutability": "nonpayable",
            "type": "function"
        },
        {
            "inputs": [
                {
                    "internalType": "bytes32",
                    "name": "role",
                    "type": "bytes32"
                },
                {
                    "internalType": "address",
                    "name": "account",
                    "type": "address"
                }
            ],
            "name": "renounceRole",
            "outputs": [],
            "stateMutability": "nonpayable",
            "type": "function"
        },
        {
            "inputs": [
                {
                    "internalType": "bytes32",
                    "name": "role",
                    "type": "bytes32"
                },
                {
                    "internalType": "address",
                    "name": "account",
                    "type": "address"
                }
            ],
            "name": "revokeRole",
            "outputs": [],
            "stateMutability": "nonpayable",
            "type": "function"
        },
        {
            "inputs": [
                {
                    "internalType": "string",
                    "name": "",
                    "type": "string"
                }
            ],
            "name": "securityTokens",
            "outputs": [
                {
                    "internalType": "address",
                    "name": "",
                    "type": "address"
                }
            ],
            "stateMutability": "view",
            "type": "function"
        },
        {
            "inputs": [
                {
                    "internalType": "address",
                    "name": "recipient",
                    "type": "address"
                },
                {
                    "internalType": "address",
                    "name": "sender",
                    "type": "address"
                },
                {
                    "internalType": "string",
                    "name": "symbol",
                    "type": "string"
                },
                {
                    "internalType": "uint256",
                    "name": "amount",
                    "type": "uint256"
                }
            ],
            "name": "sellSecurityToken",
            "outputs": [],
            "stateMutability": "nonpayable",
            "type": "function"
        },
        {
            "inputs": [
                {
                    "internalType": "bytes4",
                    "name": "interfaceId",
                    "type": "bytes4"
                }
            ],
            "name": "supportsInterface",
            "outputs": [
                {
                    "internalType": "bool",
                    "name": "",
                    "type": "bool"
                }
            ],
            "stateMutability": "view",
            "type": "function"
        },
        {
            "inputs": [
                {
                    "internalType": "address",
                    "name": "newOwner",
                    "type": "address"
                }
            ],
            "name": "transferOwnership",
            "outputs": [],
            "stateMutability": "nonpayable",
            "type": "function"
        }
    ],
    "bytecode": "60806040523480156200001157600080fd5b50604051620033c6380380620033c68339810160408190526200003491620001b1565b6200003f33620000b0565b600280546001600160a01b038085166001600160a01b03199283161790925560038054928416929091169190911790556200007c60003362000100565b620000a87f04c6a47ae7910ef8b295215a97e8495a9eaf57b7b05bfd8bf951edb3fd4a16a33362000100565b5050620001f0565b600080546001600160a01b038381166001600160a01b0319831681178455604051919092169283917f8be0079c531659141344cd1fd0a4f28419497f9722a3daafe3b4186f6b6457e09190a35050565b6200010c828262000110565b5050565b60008281526001602090815260408083206001600160a01b038516845290915290205460ff166200010c5760008281526001602081815260408084206001600160a01b0386168086529252808420805460ff19169093179092559051339285917f2f8788117e7eff1d82e926ec794901d17c78024a50270940304540a733656f0d9190a45050565b6001600160a01b0381168114620001ae57600080fd5b50565b60008060408385031215620001c557600080fd5b8251620001d28162000198565b6020840151909250620001e58162000198565b809150509250929050565b6131c680620002006000396000f3fe608060405260043610620001435760003560e01c80636d3123eb11620000b957806391d14854116200007857806391d14854146200039c578063a217fddf14620003c1578063ae1b768d14620003d8578063d547741f14620003fd578063da48f4ad1462000422578063f2fde38b146200046757600080fd5b80636d3123eb14620002f8578063715018a6146200031a5780637cfb3d7114620003325780637dafbedf14620003575780638da5cb5b146200037c57600080fd5b806336568abe116200010657806336568abe146200023757806345576f94146200025c5780635ff53fc4146200028c578063629bc15514620002ae5780636cfde49114620002d357600080fd5b806301ffc9a71462000148578063182e8ca31462000182578063248a9ca314620001a95780632f2ff15d14620001ed57806332ad74411462000212575b600080fd5b3480156200015557600080fd5b506200016d6200016736600462001931565b6200048c565b60405190151581526020015b60405180910390f35b3480156200018f57600080fd5b50620001a7620001a136600462001a4b565b620004c4565b005b348015620001b657600080fd5b50620001de620001c836600462001ab9565b6000908152600160208190526040909120015490565b60405190815260200162000179565b348015620001fa57600080fd5b50620001a76200020c36600462001ad3565b620006d9565b3480156200021f57600080fd5b50620001de6000805160206200317183398151915281565b3480156200024457600080fd5b50620001a76200025636600462001ad3565b62000709565b620002736200026d36600462001b02565b6200078b565b6040516001600160a01b03909116815260200162000179565b3480156200029957600080fd5b5060025462000273906001600160a01b031681565b348015620002bb57600080fd5b5062000273620002cd36600462001b02565b6200099b565b348015620002e057600080fd5b506200016d620002f236600462001b43565b620009ce565b3480156200030557600080fd5b5060035462000273906001600160a01b031681565b3480156200032757600080fd5b50620001a762000c94565b3480156200033f57600080fd5b50620001a76200035136600462001b84565b62000cfe565b3480156200036457600080fd5b50620001a76200037636600462001a4b565b62000d78565b3480156200038957600080fd5b506000546001600160a01b031662000273565b348015620003a957600080fd5b506200016d620003bb36600462001ad3565b62001102565b348015620003ce57600080fd5b50620001de600081565b348015620003e557600080fd5b50620001a7620003f736600462001ba2565b6200112d565b3480156200040a57600080fd5b50620001a76200041c36600462001ad3565b620012b2565b3480156200042f57600080fd5b50620002736200044136600462001b02565b80516020818301810180516004825292820191909301209152546001600160a01b031681565b3480156200047457600080fd5b50620001a76200048636600462001b84565b620012dd565b60006001600160e01b03198216637965db0b60e01b1480620004be57506301ffc9a760e01b6001600160e01b03198316145b92915050565b620004df600080516020620031718339815191523362001102565b620005315760405162461bcd60e51b815260206004820181905260248201527f596f7520646f6e742068617665207065726d697373696f6e20746f206d696e7460448201526064015b60405180910390fd5b600060048660405162000545919062001c43565b908152604051908190036020019020546001600160a01b0316905080620005af5760405162461bcd60e51b815260206004820152601c60248201527f436f756c646e27742066696e642073796d626f6c206164647265737300000000604482015260640162000528565b604051632770a7eb60e21b81526001600160a01b03868116600483015260248201869052829190821690639dc29fac90604401600060405180830381600087803b158015620005fd57600080fd5b505af115801562000612573d6000803e3d6000fd5b50506002546040516338c110ef60e21b81526001600160a01b038a8116600483015260248201889052909116925063e30443bc91506044016020604051808303816000875af11580156200066a573d6000803e3d6000fd5b505050506040513d601f19601f8201168201806040525081019062000690919062001c61565b507fd581915fe7853994f2b3465dfbf5af86fa49e10f67587a6525afd708b66a9a4b87878787604051620006c8949392919062001ca9565b60405180910390a150505050505050565b60008281526001602081905260409091200154620006f88133620013ab565b6200070483836200141a565b505050565b6001600160a01b03811633146200077b5760405162461bcd60e51b815260206004820152602f60248201527f416363657373436f6e74726f6c3a2063616e206f6e6c792072656e6f756e636560448201526e103937b632b9903337b91039b2b63360891b606482015260840162000528565b62000787828262001488565b5050565b6000815160001415620007da5760405162461bcd60e51b815260206004820152601660248201527553796d626f6c2063616e6e6f7420626520656d70747960501b604482015260640162000528565b60006001600160a01b0316600483604051620007f7919062001c43565b908152604051908190036020019020546001600160a01b0316146200085f5760405162461bcd60e51b815260206004820152601d60248201527f536563757269747920746f6b656e20616c726561647920657869737473000000604482015260640162000528565b60006200089b60405180604001604052806015815260200174131a5b5a5b985b0b9b585c9ad95d081cde5b589bdb605a1b8152508430620014f2565b9050661c0cc191541a5660006200090983838151602092830120604080516001600160f81b0319818601523060601b6bffffffffffffffffffffffff191660218201526035810193909352605580840192909252805180840390920182526075909201909152805191012090565b90506200091783836200156f565b806004866040516200092a919062001c43565b90815260405190819003602001812080546001600160a01b03939093166001600160a01b0319909316929092179091557f7c56d5eff73d004b4d80f35d05a7e9a2429df1bb9544be59c859d049e2f449fb906200098b908390889062001ce3565b60405180910390a1949350505050565b6000600482604051620009af919062001c43565b908152604051908190036020019020546001600160a01b031692915050565b6002546040516370a0823160e01b81526001600160a01b03858116600483015260009283929116906370a0823190602401602060405180830381865afa15801562000a1d573d6000803e3d6000fd5b505050506040513d601f19601f8201168201806040525081019062000a43919062001c61565b90508281101562000a975760405162461bcd60e51b815260206004820152601a60248201527f596f7520646f6e2774206861766520656e6f7567682061555344000000000000604482015260640162000528565b600354604051638b1b925f60e01b81526001600160a01b0387811660048301526000921690638b1b925f90602401600060405180830381865afa15801562000ae3573d6000803e3d6000fd5b505050506040513d6000823e601f3d908101601f1916820160405262000b0d919081019062001d09565b6002549091506001600160a01b031663e30443bc8762000b2e878662001d9f565b6040516001600160e01b031960e085901b1681526001600160a01b03909216600483015260248201526044016020604051808303816000875af115801562000b7a573d6000803e3d6000fd5b505050506040513d601f19601f8201168201806040525081019062000ba0919062001c61565b5062000bd36040518060400160405280600e81526020016d2a37b5b2b71030b2323932b9b99d60911b81525086620015cf565b60008590506000816001600160a01b03166395d89b416040518163ffffffff1660e01b8152600401600060405180830381865afa15801562000c19573d6000803e3d6000fd5b505050506040513d6000823e601f3d908101601f1916820160405262000c43919081019062001d09565b90507f63b41fc8b78a5a7716886b22e480980188e5b8b0d6a8e29c03c85bd969642589888785848b60405162000c7e95949392919062001db9565b60405180910390a1506001979650505050505050565b6000546001600160a01b0316331462000cf05760405162461bcd60e51b815260206004820181905260248201527f4f776e61626c653a2063616c6c6572206973206e6f7420746865206f776e6572604482015260640162000528565b62000cfc600062001618565b565b6000546001600160a01b0316331462000d5a5760405162461bcd60e51b815260206004820152601a60248201527f4f6e6c79206f776e65722063616e206772616e7420726f6c6573000000000000604482015260640162000528565b62000d756000805160206200317183398151915282620006d9565b50565b62000d93600080516020620031718339815191523362001102565b62000de15760405162461bcd60e51b815260206004820181905260248201527f596f7520646f6e742068617665207065726d697373696f6e20746f206d696e74604482015260640162000528565b62000e226040518060400160405280601981526020017f5365637572697479466163746f7279202d20616d6f756e743a000000000000008152508462001668565b62000e636040518060400160405280601c81526020017f5365637572697479466163746f7279202d20726563697069656e743a0000000081525085620015cf565b62000ea46040518060400160405280601981526020017f5365637572697479466163746f7279202d2073796d626f6c3a0000000000000081525086620016b1565b62000ee56040518060400160405280601e81526020017f5365637572697479466163746f7279202d206155736442616c616e63653a00008152508262001668565b82156200100e57600060048660405162000f00919062001c43565b908152604051908190036020019020546001600160a01b031690508062000f6a5760405162461bcd60e51b815260206004820152601c60248201527f436f756c646e27742066696e642073796d626f6c206164647265737300000000604482015260640162000528565b62000fa46040518060400160405280601681526020017529b2b1bab934ba3caa37b5b2b71030b2323932b9b99d60511b81525082620015cf565b6040516340c10f1960e01b81526001600160a01b038681166004830152602482018690528291908216906340c10f1990604401600060405180830381600087803b15801562000ff257600080fd5b505af115801562001007573d6000803e3d6000fd5b5050505050505b6002546040516338c110ef60e21b81526001600160a01b038681166004830152602482018490529091169063e30443bc906044016020604051808303816000875af115801562001062573d6000803e3d6000fd5b505050506040513d601f19601f8201168201806040525081019062001088919062001c61565b50620010bc6040518060400160405280601081526020016f1113d3914b08191bda5b99c8195b5a5d60821b815250620016fa565b7f920b22c7bc0db9b2ae8edb75829e91c90ab7fa7dc8a4cce8a357bf8ce245c43285858585604051620010f3949392919062001ca9565b60405180910390a15050505050565b60009182526001602090815260408084206001600160a01b0393909316845291905290205460ff1690565b6002546001600160a01b038581169116146200118c5760405162461bcd60e51b815260206004820152601d60248201527f56302e3120646f65736e277420737570706f7274207472616e73666572000000604482015260640162000528565b600354604051638b1b925f60e01b81526001600160a01b0385811660048301526000921690638b1b925f90602401600060405180830381865afa158015620011d8573d6000803e3d6000fd5b505050506040513d6000823e601f3d908101601f1916820160405262001202919081019062001d09565b604051632770a7eb60e21b81526001600160a01b03861660048201526024810184905290915033908190639dc29fac90604401600060405180830381600087803b1580156200125057600080fd5b505af115801562001265573d6000803e3d6000fd5b505050507f258a03e755a014272ade3556bbb170a7d4b4777dca0ed898c4968929e2869fd68287878787604051620012a295949392919062001e0d565b60405180910390a1505050505050565b60008281526001602081905260409091200154620012d18133620013ab565b62000704838362001488565b6000546001600160a01b03163314620013395760405162461bcd60e51b815260206004820181905260248201527f4f776e61626c653a2063616c6c6572206973206e6f7420746865206f776e6572604482015260640162000528565b6001600160a01b038116620013a05760405162461bcd60e51b815260206004820152602660248201527f4f776e61626c653a206e6577206f776e657220697320746865207a65726f206160448201526564647265737360d01b606482015260840162000528565b62000d758162001618565b620013b7828262001102565b6200078757620013d2816001600160a01b0316601462001741565b620013df83602062001741565b604051602001620013f292919062001e60565b60408051601f198184030181529082905262461bcd60e51b8252620005289160040162001ed9565b62001426828262001102565b620007875760008281526001602081815260408084206001600160a01b0386168086529252808420805460ff19169093179092559051339285917f2f8788117e7eff1d82e926ec794901d17c78024a50270940304540a733656f0d9190a45050565b62001494828262001102565b15620007875760008281526001602090815260408083206001600160a01b0385168085529252808320805460ff1916905551339285917ff6391f5c32d9c69d2a47ea670b442974b53935d1edc7fd64eb21e047a839171b9190a45050565b6060600060405180602001620015089062001923565b6020820181038252601f19601f82011660405250905080858585604051602001620015369392919062001eee565b60408051601f198184030181529082905262001556929160200162001f30565b6040516020818303038152906040529150509392505050565b60008183516020850134f59050803b6200158857600080fd5b604080516001600160a01b0383168152602081018490527fb03c53b28e78a88e31607a27e1fa48234dce28d5d9d9ec7b295aeb02e674a1e1910160405180910390a1505050565b620007878282604051602401620015e892919062001f63565b60408051601f198184030181529190526020810180516001600160e01b031663319af33360e01b17905262001902565b600080546001600160a01b038381166001600160a01b0319831681178455604051919092169283917f8be0079c531659141344cd1fd0a4f28419497f9722a3daafe3b4186f6b6457e09190a35050565b6200078782826040516024016200168192919062001f8f565b60408051601f198184030181529190526020810180516001600160e01b03166309710a9d60e41b17905262001902565b620007878282604051602401620016ca92919062001fb3565b60408051601f198184030181529190526020810180516001600160e01b0316634b5c427760e01b17905262001902565b62000d758160405160240162001711919062001ed9565b60408051601f198184030181529190526020810180516001600160e01b031663104c13eb60e21b17905262001902565b606060006200175283600262001fdc565b6200175f90600262001ffe565b67ffffffffffffffff8111156200177a576200177a6200195d565b6040519080825280601f01601f191660200182016040528015620017a5576020820181803683370190505b509050600360fc1b81600081518110620017c357620017c362002019565b60200101906001600160f81b031916908160001a905350600f60fb1b81600181518110620017f557620017f562002019565b60200101906001600160f81b031916908160001a90535060006200181b84600262001fdc565b6200182890600162001ffe565b90505b6001811115620018aa576f181899199a1a9b1b9c1cb0b131b232b360811b85600f166010811062001860576200186062002019565b1a60f81b82828151811062001879576200187962002019565b60200101906001600160f81b031916908160001a90535060049490941c93620018a2816200202f565b90506200182b565b508315620018fb5760405162461bcd60e51b815260206004820181905260248201527f537472696e67733a20686578206c656e67746820696e73756666696369656e74604482015260640162000528565b9392505050565b80516a636f6e736f6c652e6c6f67602083016000808483855afa5050505050565b611127806200204a83390190565b6000602082840312156200194457600080fd5b81356001600160e01b031981168114620018fb57600080fd5b634e487b7160e01b600052604160045260246000fd5b604051601f8201601f1916810167ffffffffffffffff811182821017156200199f576200199f6200195d565b604052919050565b600067ffffffffffffffff821115620019c457620019c46200195d565b50601f01601f191660200190565b600082601f830112620019e457600080fd5b8135620019fb620019f582620019a7565b62001973565b81815284602083860101111562001a1157600080fd5b816020850160208301376000918101602001919091529392505050565b80356001600160a01b038116811462001a4657600080fd5b919050565b600080600080600060a0868803121562001a6457600080fd5b853567ffffffffffffffff81111562001a7c57600080fd5b62001a8a88828901620019d2565b95505062001a9b6020870162001a2e565b94979496505050506040830135926060810135926080909101359150565b60006020828403121562001acc57600080fd5b5035919050565b6000806040838503121562001ae757600080fd5b8235915062001af96020840162001a2e565b90509250929050565b60006020828403121562001b1557600080fd5b813567ffffffffffffffff81111562001b2d57600080fd5b62001b3b84828501620019d2565b949350505050565b60008060006060848603121562001b5957600080fd5b62001b648462001a2e565b925062001b746020850162001a2e565b9150604084013590509250925092565b60006020828403121562001b9757600080fd5b620018fb8262001a2e565b6000806000806080858703121562001bb957600080fd5b62001bc48562001a2e565b935062001bd46020860162001a2e565b9250604085013567ffffffffffffffff81111562001bf157600080fd5b62001bff87828801620019d2565b949793965093946060013593505050565b60005b8381101562001c2d57818101518382015260200162001c13565b8381111562001c3d576000848401525b50505050565b6000825162001c5781846020870162001c10565b9190910192915050565b60006020828403121562001c7457600080fd5b5051919050565b6000815180845262001c9581602086016020860162001c10565b601f01601f19169290920160200192915050565b60808152600062001cbe608083018762001c7b565b6001600160a01b03959095166020830152506040810192909252606090910152919050565b6001600160a01b038316815260406020820181905260009062001b3b9083018462001c7b565b60006020828403121562001d1c57600080fd5b815167ffffffffffffffff81111562001d3457600080fd5b8201601f8101841362001d4657600080fd5b805162001d57620019f582620019a7565b81815285602083850101111562001d6d57600080fd5b62001d8082602083016020860162001c10565b95945050505050565b634e487b7160e01b600052601160045260246000fd5b60008282101562001db45762001db462001d89565b500390565b600060018060a01b03808816835286602084015260a0604084015262001de360a084018762001c7b565b838103606085015262001df7818762001c7b565b9250508084166080840152509695505050505050565b60a08152600062001e2260a083018862001c7b565b6001600160a01b03878116602085015286166040840152828103606084015262001e4d818662001c7b565b9150508260808301529695505050505050565b7f416363657373436f6e74726f6c3a206163636f756e742000000000000000000081526000835162001e9a81601785016020880162001c10565b7001034b99036b4b9b9b4b733903937b6329607d1b601791840191820152835162001ecd81602884016020880162001c10565b01602801949350505050565b602081526000620018fb602083018462001c7b565b60608152600062001f03606083018662001c7b565b828103602084015262001f17818662001c7b565b91505060018060a01b0383166040830152949350505050565b6000835162001f4481846020880162001c10565b83519083019062001f5a81836020880162001c10565b01949350505050565b60408152600062001f78604083018562001c7b565b905060018060a01b03831660208301529392505050565b60408152600062001fa4604083018562001c7b565b90508260208301529392505050565b60408152600062001fc8604083018562001c7b565b828103602084015262001d80818562001c7b565b600081600019048311821515161562001ff95762001ff962001d89565b500290565b6000821982111562002014576200201462001d89565b500190565b634e487b7160e01b600052603260045260246000fd5b60008162002041576200204162001d89565b50600019019056fe60806040523480156200001157600080fd5b50604051620011273803806200112783398101604081905262000034916200024d565b818162000041336200008a565b815162000056906004906020850190620000da565b5080516200006c906005906020840190620000da565b5050600680546001600160a01b0319163317905550620002f4915050565b600080546001600160a01b038381166001600160a01b0319831681178455604051919092169283917f8be0079c531659141344cd1fd0a4f28419497f9722a3daafe3b4186f6b6457e09190a35050565b828054620000e890620002b7565b90600052602060002090601f0160209004810192826200010c576000855562000157565b82601f106200012757805160ff191683800117855562000157565b8280016001018555821562000157579182015b82811115620001575782518255916020019190600101906200013a565b506200016592915062000169565b5090565b5b808211156200016557600081556001016200016a565b634e487b7160e01b600052604160045260246000fd5b600082601f830112620001a857600080fd5b81516001600160401b0380821115620001c557620001c562000180565b604051601f8301601f19908116603f01168101908282118183101715620001f057620001f062000180565b816040528381526020925086838588010111156200020d57600080fd5b600091505b8382101562000231578582018301518183018401529082019062000212565b83821115620002435760008385830101525b9695505050505050565b600080604083850312156200026157600080fd5b82516001600160401b03808211156200027957600080fd5b620002878683870162000196565b935060208501519150808211156200029e57600080fd5b50620002ad8582860162000196565b9150509250929050565b600181811c90821680620002cc57607f821691505b60208210811415620002ee57634e487b7160e01b600052602260045260246000fd5b50919050565b610e2380620003046000396000f3fe608060405234801561001057600080fd5b50600436106101005760003560e01c8063715018a611610097578063a457c2d711610066578063a457c2d714610209578063a9059cbb1461021c578063dd62ed3e1461022f578063f2fde38b1461024257600080fd5b8063715018a6146101cb5780638da5cb5b146101d357806395d89b41146101ee5780639dc29fac146101f657600080fd5b8063313ce567116100d3578063313ce5671461016b578063395093511461017a57806340c10f191461018d57806370a08231146101a257600080fd5b806306fdde0314610105578063095ea7b31461012357806318160ddd1461014657806323b872dd14610158575b600080fd5b61010d610255565b60405161011a9190610bc8565b60405180910390f35b610136610131366004610bfe565b6102e7565b604051901515815260200161011a565b6003545b60405190815260200161011a565b610136610166366004610c28565b610337565b6040516012815260200161011a565b610136610188366004610bfe565b610381565b6101a061019b366004610bfe565b6103c6565b005b61014a6101b0366004610c64565b6001600160a01b031660009081526001602052604090205490565b6101a061045a565b6000546040516001600160a01b03909116815260200161011a565b61010d610490565b6101a0610204366004610bfe565b61049f565b610136610217366004610bfe565b61057b565b61013661022a366004610bfe565b610614565b61014a61023d366004610c7f565b61068d565b6101a0610250366004610c64565b6106d8565b60606004805461026490610cb2565b80601f016020809104026020016040519081016040528092919081815260200182805461029090610cb2565b80156102dd5780601f106102b2576101008083540402835291602001916102dd565b820191906000526020600020905b8154815290600101906020018083116102c057829003601f168201915b5050505050905090565b60405162461bcd60e51b815260206004820152601c60248201527f56302e3120646f65736e277420737570706f727420617070726f76650000000060448201526000906064015b60405180910390fd5b600060405162461bcd60e51b815260040161032e906020808252818101527f56302e3120646f65736e277420737570706f7274207472616e66657246726f6d604082015260600190565b3360008181526002602090815260408083206001600160a01b038716845290915281205490916103bd9185906103b8908690610d03565b610773565b50600192915050565b6000546001600160a01b031633146103f05760405162461bcd60e51b815260040161032e90610d1b565b6103fa8282610897565b7f704496b72f6d3fd6e462fa31e27faddedde127bc9942bc94320e0c115b00cedf8282610425610490565b6001600160a01b03861660009081526001602052604090205460405161044e9493929190610d50565b60405180910390a15050565b6000546001600160a01b031633146104845760405162461bcd60e51b815260040161032e90610d1b565b61048e6000610977565b565b60606005805461026490610cb2565b6000546001600160a01b031633146104c95760405162461bcd60e51b815260040161032e90610d1b565b6001600160a01b038216600090815260016020526040812054905061050d6040518060400160405280600781526020016630b6b7bab73a1d60c91b815250836109c7565b6105366040518060400160405280600781526020016662616c616e636560c81b815250826109c7565b81811015610542578091505b61056c60405180604001604052806008815260200167313ab93734b7339d60c11b815250836109c7565b6105768383610a0c565b505050565b3360009081526002602090815260408083206001600160a01b0386168452909152812054828110156105fd5760405162461bcd60e51b815260206004820152602560248201527f45524332303a2064656372656173656420616c6c6f77616e63652062656c6f77604482015264207a65726f60d81b606482015260840161032e565b61060a3385858403610773565b5060019392505050565b6006546000906001600160a01b031663ae1b768d8433610632610490565b866040518563ffffffff1660e01b81526004016106529493929190610d88565b600060405180830381600087803b15801561066c57600080fd5b505af1158015610680573d6000803e3d6000fd5b5060019695505050505050565b60405162461bcd60e51b815260206004820152601e60248201527f56302e3120646f65736e277420737570706f727420616c6c6f77616e63650000604482015260009060640161032e565b6000546001600160a01b031633146107025760405162461bcd60e51b815260040161032e90610d1b565b6001600160a01b0381166107675760405162461bcd60e51b815260206004820152602660248201527f4f776e61626c653a206e6577206f776e657220697320746865207a65726f206160448201526564647265737360d01b606482015260840161032e565b61077081610977565b50565b6001600160a01b0383166107d55760405162461bcd60e51b8152602060048201526024808201527f45524332303a20617070726f76652066726f6d20746865207a65726f206164646044820152637265737360e01b606482015260840161032e565b6001600160a01b0382166108365760405162461bcd60e51b815260206004820152602260248201527f45524332303a20617070726f766520746f20746865207a65726f206164647265604482015261737360f01b606482015260840161032e565b6001600160a01b0383811660008181526002602090815260408083209487168084529482529182902085905590518481527f8c5be1e5ebec7d5bd14f71427d1e84f3dd0314c0f7b2291e5b200ac8c7c3b925910160405180910390a3505050565b6001600160a01b0382166108ed5760405162461bcd60e51b815260206004820152601f60248201527f45524332303a206d696e7420746f20746865207a65726f206164647265737300604482015260640161032e565b80600360008282546108ff9190610d03565b90915550506001600160a01b0382166000908152600160205260408120805483929061092c908490610d03565b90915550506040518181526001600160a01b038316906000907fddf252ad1be2c89b69c2b068fc378daa952ba7f163c4a11628f55a4df523b3ef9060200160405180910390a35b5050565b600080546001600160a01b038381166001600160a01b0319831681178455604051919092169283917f8be0079c531659141344cd1fd0a4f28419497f9722a3daafe3b4186f6b6457e09190a35050565b61097382826040516024016109dd929190610db4565b60408051601f198184030181529190526020810180516001600160e01b03166309710a9d60e41b179052610b5a565b6001600160a01b038216610a6c5760405162461bcd60e51b815260206004820152602160248201527f45524332303a206275726e2066726f6d20746865207a65726f206164647265736044820152607360f81b606482015260840161032e565b6001600160a01b03821660009081526001602052604090205481811015610ae05760405162461bcd60e51b815260206004820152602260248201527f45524332303a206275726e20616d6f756e7420657863656564732062616c616e604482015261636560f01b606482015260840161032e565b6001600160a01b0383166000908152600160205260408120838303905560038054849290610b0f908490610dd6565b90915550506040518281526000906001600160a01b038516907fddf252ad1be2c89b69c2b068fc378daa952ba7f163c4a11628f55a4df523b3ef9060200160405180910390a3505050565b80516a636f6e736f6c652e6c6f67602083016000808483855afa5050505050565b6000815180845260005b81811015610ba157602081850181015186830182015201610b85565b81811115610bb3576000602083870101525b50601f01601f19169290920160200192915050565b602081526000610bdb6020830184610b7b565b9392505050565b80356001600160a01b0381168114610bf957600080fd5b919050565b60008060408385031215610c1157600080fd5b610c1a83610be2565b946020939093013593505050565b600080600060608486031215610c3d57600080fd5b610c4684610be2565b9250610c5460208501610be2565b9150604084013590509250925092565b600060208284031215610c7657600080fd5b610bdb82610be2565b60008060408385031215610c9257600080fd5b610c9b83610be2565b9150610ca960208401610be2565b90509250929050565b600181811c90821680610cc657607f821691505b60208210811415610ce757634e487b7160e01b600052602260045260246000fd5b50919050565b634e487b7160e01b600052601160045260246000fd5b60008219821115610d1657610d16610ced565b500190565b6020808252818101527f4f776e61626c653a2063616c6c6572206973206e6f7420746865206f776e6572604082015260600190565b60018060a01b0385168152836020820152608060408201526000610d776080830185610b7b565b905082606083015295945050505050565b6001600160a01b03858116825284166020820152608060408201819052600090610d7790830185610b7b565b604081526000610dc76040830185610b7b565b90508260208301529392505050565b600082821015610de857610de8610ced565b50039056fea264697066735822122002c78bad9f9e4bdf459fe672e0f38bf4a2463a4dfaef18c90d773516b3b4a7ea64736f6c634300080b003304c6a47ae7910ef8b295215a97e8495a9eaf57b7b05bfd8bf951edb3fd4a16a3a26469706673582212204660e369bc283da8e02c13572a8b16407423d50ea59f76f7e84918df70e6994164736f6c634300080b0033",
    "sourcePath": "c:/Users/ingig/source/repos/liminal.market.contracts/contracts/LiminalMarket.sol",
    "compiler": {
        "name": "solc",
        "version": "0.8.11+commit.d7f03943"
    },
    "functionHashes": {
        "DEFAULT_ADMIN_ROLE()": "a217fddf",
        "MINT_AND_BURN_ROLE()": "32ad7441",
        "aUsdContract()": "5ff53fc4",
        "burnSecurityTokenAndSetAUsdBalance(string,address,uint256,uint256,uint256)": "182e8ca3",
        "buyWithAUsd(address,address,uint256)": "6cfde491",
        "createToken(string)": "45576f94",
        "getRoleAdmin(bytes32)": "248a9ca3",
        "getSecurityToken(string)": "629bc155",
        "grantMintAndBurnRole(address)": "7cfb3d71",
        "grantRole(bytes32,address)": "2f2ff15d",
        "hasRole(bytes32,address)": "91d14854",
        "kycContract()": "6d3123eb",
        "mintSecurityTokenAndSetAUsdBalance(string,address,uint256,uint256,uint256)": "7dafbedf",
        "owner()": "8da5cb5b",
        "renounceOwnership()": "715018a6",
        "renounceRole(bytes32,address)": "36568abe",
        "revokeRole(bytes32,address)": "d547741f",
        "securityTokens(string)": "da48f4ad",
        "sellSecurityToken(address,address,string,uint256)": "ae1b768d",
        "supportsInterface(bytes4)": "01ffc9a7",
        "transferOwnership(address)": "f2fde38b"
    },
    "gasEstimates": {
        "creation": {
            "codeDepositCost": "2548400",
            "executionCost": "infinite",
            "totalCost": "infinite"
        },
        "external": {
            "DEFAULT_ADMIN_ROLE()": "239",
            "MINT_AND_BURN_ROLE()": "infinite",
            "aUsdContract()": "2404",
            "burnSecurityTokenAndSetAUsdBalance(string,address,uint256,uint256,uint256)": "infinite",
            "buyWithAUsd(address,address,uint256)": "infinite",
            "createToken(string)": "infinite",
            "getRoleAdmin(bytes32)": "2518",
            "getSecurityToken(string)": "infinite",
            "grantMintAndBurnRole(address)": "infinite",
            "grantRole(bytes32,address)": "infinite",
            "hasRole(bytes32,address)": "2676",
            "kycContract()": "2360",
            "mintSecurityTokenAndSetAUsdBalance(string,address,uint256,uint256,uint256)": "infinite",
            "owner()": "2442",
            "renounceOwnership()": "28159",
            "renounceRole(bytes32,address)": "29024",
            "revokeRole(bytes32,address)": "infinite",
            "securityTokens(string)": "infinite",
            "sellSecurityToken(address,address,string,uint256)": "infinite",
            "supportsInterface(bytes4)": "450",
            "transferOwnership(address)": "28441"
        },
        "internal": {
            "deploy(bytes memory,uint256)": "infinite",
            "getAddress(bytes memory,uint256)": "infinite",
            "getBytecode(string memory,string memory,address)": "infinite"
        }
    }
}